:020000040800F2
:1000000008450020CD0100081B0700081307000861
:1000100017070008AF040008630F00080000000085
:100020000000000000000000000000006D08000853
:10003000CD050008000000001D0700087909000830
:10004000E7010008E7010008E7010008E7010008F0
:10005000E7010008E7010008E7010008E7010008E0
:10006000E7010008E7010008E7010008E7010008D0
:10007000E7010008E7010008E7010008E7010008C0
:10008000E7010008E701000887020008E70100080F
:10009000E7010008E7010008E7010008E7010008A0
:1000A000E7010008E7010008E7010008E701000890
:1000B000E7010008E7010008E7010008E701000880
:1000C000E7010008E7010008E7010008E701000870
:1000D000E7010008090E0008410E0008430E000861
:1000E000E7010008E7010008E7010008E701000850
:1000F000E7010008E7010008E7010008E701000840
:10010000E7010008E7010008E7010008E70100082F
:10011000E7010008E7010008E7010008E70100081F
:10012000E7010008E7010008E7010008E70100080F
:1001300000F002F800F03AF80AA090E8000C8244BF
:100140008344AAF10107DA4501D100F02FF8AFF29C
:10015000090EBAE80F0013F0010F18BFFB1A43F0A5
:1001600001031847CC0E0000EC0E0000103A24BF2B
:1001700078C878C1FAD8520724BF30C830C144BF0C
:1001800004680C607047000000230024002500264E
:10019000103A28BF78C1FBD8520728BF30C148BFEA
:1001A0000B6070471FB51FBD10B510BD00F031F8D2
:1001B0001146FFF7F7FF00F0D7FE00F04FF803B449
:1001C000FFF7F2FF03BC00F057F800000948804732
:1001D00009480047FEE7FEE7FEE7FEE7FEE7FEE729
:1001E000FEE7FEE7FEE7FEE704480549054A064B41
:1001F000704700007D09000831010008083F002019
:100200000845002008410020084100207047704741
:100210007047754600F02CF8AE4605006946534617
:1002200020F00700854618B020B5FFF7DDFFBDE8D8
:1002300020404FF000064FF000074FF000084FF04D
:10024000000B21F00701AC46ACE8C009ACE8C009DE
:10025000ACE8C009ACE8C0098D46704710B504464B
:10026000AFF300802046BDE81040FFF7A8BF0000B4
:1002700000487047A43E002001491820ABBEFEE7AD
:10028000260002007047704700B587B001210420A6
:1002900000F072FA00208DF81B000420ADF8180061
:1002A00003208DF81A0006A91D4800F0A7F90121C6
:1002B000480200F061FA4FF4404000F031FA0020AB
:1002C000019004904FF46020039001208DF8090004
:1002D00000208DF8080001208DF8140001A91148B4
:1002E00000F04CF801231A4602210E4800F06EF887
:1002F00001210C4800F018F80A4800F0C3F800BFCC
:10030000084800F031F80128FAD0064800F0CAF891
:1003100000BF044800F01EF80128FAD007B000BD65
:10032000000801400024014021B1826842F001022E
:10033000826003E0826822F001028260704721B18E
:10034000826842F48072826003E0826822F48072E4
:1003500082607047014600208A6802F004020AB1F8
:10036000012000E000207047014600208A6802F06A
:1003700008020AB1012000E00020704730B50246B3
:100380000020002350680F4C20400D790C6844EA8F
:1003900005242043506090680B4C2040D1E9025462
:1003A0002C434D7944EA450420439060D06A20F400
:1003B00070000C7C641EE4B2234340EA0350D06218
:1003C00030BD0000FFFEF0FFFDF7F1FFF0B5044681
:1003D0000D4600200021092D11DDE068A5F10A0677
:1003E00006EB4607072606FA07F18843A5F10A0639
:1003F00006EB460603FA06F10843E0600CE02069CC
:1004000005EB4507072606FA07F1884305EB450685
:1004100003FA06F108432061072A0FDA606B561EC3
:1004200006EB86071F2606FA07F18843561E06EBE1
:10043000860605FA06F10843606322E00D2A0FDA0A
:10044000206BD61F06EB86071F2606FA07F18843A6
:10045000D61F06EB860605FA06F10843206310E076
:10046000E06AA2F10D0606EB86071F2606FA07F1E1
:100470008843A2F10D0606EB860605FA06F108434D
:10048000E062F0BD816841F008018160704721B1F0
:10049000826842F4A002826003E0826822F4A00233
:1004A00082607047816841F004018160704700BF3D
:1004B000FEE7000070B500BF00F0A8FCFF28FBD1EC
:1004C000002506E0154830F81500154921F81500FB
:1004D0006D1CB5F57A6FF5DB002419E0104830F893
:1004E0001400000A0F4908800846008800F09EFCAE
:1004F000572000F06CF80A4830F8140009490880C9
:100500000846008800F092FC572000F060F8641C58
:10051000B4F57A6FE2DBFFF7CDFF70BD641F0020FA
:10052000240000200C00002021B1026842F00102EA
:10053000026004E002684FF6FE731A4002607047E2
:1005400030B58BB005460C460121084600F0F4F8A2
:100550000D480090801506900020049001954FF4FE
:100560008060079080200590002002900394202056
:10057000089000200A904FF4805009906946034883
:1005800000F006F80BB030BD4C24014008000240DA
:1005900010B50022026847F6F0739A430C6A8B6824
:1005A00023430C6923434C6923438C692343CC695F
:1005B00023434C6A23438C6A23431A430260CB686B
:1005C00043600B6883604B68C36010BD704700EBED
:1005D000C001C9004FF0E022516100219161052165
:1005E000116100BF4FF0E021096901F48031002959
:1005F000F8D004214FF0E022116170472DE9F0415D
:10060000024600250026002000230024002791F840
:1006100003C00CF00F0591F803C00CF0100CBCF1F6
:10062000000F03D091F802C04CEA050591F800C014
:10063000BCF1000F31D0146800202BE04FF0010C0A
:100640000CFA00F3B1F800C00CEA03069E4220D178
:1006500083004FF00F0C0CFA03F7BC4305FA03FCC0
:100660004CEA040491F803C0BCF1280F06D14FF006
:10067000010C0CFA00FCC2F814C00AE091F803C0A7
:10068000BCF1480F05D14FF0010C0CFA00FCC2F888
:1006900010C0401C0828D1D31460B1F800C0BCF1D0
:1006A000FF0F34DD546800202EE000F1080C4FF0FD
:1006B000010808FA0CF3B1F800C00CEA03069E42E8
:1006C00021D183004FF00F0C0CFA03F7BC4305FA5D
:1006D00003FC4CEA040491F803C0BCF1280F05D1D7
:1006E00000F1080C08FA0CF8C2F8148091F803C065
:1006F000BCF1480F07D100F1080C4FF0010808FACF
:100700000CF8C2F81080401C0828CED35460BDE815
:10071000F08100BFFEE700BFFEE7704770470000B2
:1007200001460020034A506820F4404008435060CE
:10073000704700000010024029B1064A5269024386
:10074000044B5A6104E0034A52698243014B5A61E7
:10075000704700000010024029B1064AD2690243E6
:10076000044BDA6104E0034AD2698243014BDA6147
:10077000704700000010024029B1064A9269024306
:10078000044B9A6104E0034A92698243014B9A61E7
:10079000704700000010024030B500210022002404
:1007A00000232D4D6D6805F00C0121B1042905D001
:1007B000082923D105E0294D056022E0274D056079
:1007C0001FE0254D6D6805F47012234D6D6805F42A
:1007D0008034022505EB92421CB9214D554305603A
:1007E0000BE01D4D6D6805F400351DB11C4D5543E2
:1007F000056002E0194D5543056002E0174D0560A4
:1008000000BF00BF144D6D6805F0F0010909154DDA
:100810006B5C0568DD4045600F4D6D6805F4E06177
:10082000090A104D6B5C4568DD4085600A4D6D68B6
:1008300005F46051C90A0B4D6B5C4568DD40C5602D
:10084000054D6D6805F44041890B074D6B5CC5682B
:10085000B5FBF3F5056130BD0010024000127A00CF
:1008600000093D000E0000201E0000207047FA2005
:100870004FF0E0214861002088610520086100BF39
:100880004FF0E020006900F480300028F8D0704775
:1008900010B500F001F810BD0CB5002001900090DB
:1008A0003348006840F480303149086000BF304868
:1008B000006800F4003000900198401C01900098FE
:1008C00018B90198B0F5A06FF1D12948006800F47B
:1008D000003010B10120009001E00020009000984D
:1008E000012843D12348006840F0100021490860E6
:1008F0000846006820F0030008600846006840F0E1
:10090000020008601A484068194948600846406873
:1009100048600846406840F4806048600846406887
:1009200020F47C1048600846406840F4E8104860B5
:100930000846006840F08070086000BF0C480068FE
:1009400000F000700028F9D00948406820F003004A
:10095000074948600846406840F00200486000BF10
:100960000348406800F00C000828F9D10CBD0000D5
:1009700000100240002002407047000010B51348EC
:10098000006840F0010011490860084640681049BD
:1009900008400E494860084600680E4908400B4967
:1009A00008600846006820F4802008600846406817
:1009B00020F4FE0048604FF41F008860FFF768FFD6
:1009C0004FF000600449086010BD000000100240B4
:1009D0000000FFF8FFFFF6FE08ED00E030B589B03B
:1009E00005460C4601210420FFF7C6FE18208DF8AD
:1009F00023000220ADF8200003208DF8220008A972
:100A00001748FFF7FBFD01210846FFF7A5FE002070
:100A1000ADF81A00ADF81600681E80B2ADF81800E7
:100A20002720ADF8140000208DF81C0005A94FF018
:100A3000804000F053F901A800F046F96020ADF8BD
:100A400004000220ADF80C000120ADF80600ADF85E
:100A50000A4001A9800700F0E5F809B030BD0000A8
:100A60000008014030B589B005460C46012104203C
:100A7000FFF782FE18208DF823004020ADF82000FB
:100A800003208DF8220008A91648FFF7B7FD0121C1
:100A90000220FFF761FE0020ADF81A00ADF8160045
:100AA000681E80B2ADF818001320ADF814000020C5
:100AB0008DF81C0005A90C4800F010F901A800F001
:100AC00003F96020ADF804000220ADF80C0001200D
:100AD000ADF80600ADF80A4001A9034800F056F849
:100AE00009B030BD000801400004004030B589B0B5
:100AF00005460C4601210820FFF73EFE18208DF820
:100B000023004020ADF8200003208DF8220008A922
:100B10001648FFF773FD01210420FFF71DFE00209A
:100B2000ADF81A00ADF81600681E80B2ADF81800D6
:100B30002720ADF8140000208DF81C0005A90C48F2
:100B400000F0CCF801A800F0BFF86020ADF8040078
:100B50000020ADF80C000120ADF80600ADF80A4009
:100B600001A9034800F012F809B030BD000C0140A3
:100B70000008004021B1028842F00102028004E036
:100B800002884FF6FE731A400280704770B5002449
:100B900000220023058C4FF6FE7635400584028C3A
:100BA0008388048B4FF68F752C40B51E2C400D8822
:100BB0002C43751E2A400D892A434D882A43144D23
:100BC000A8420BD0134DA84208D0134DA84205D01F
:100BD000124DA84202D0124DA84213D14FF6F7751C
:100BE0002A404D892A434FF6FB752A408D882A43B7
:100BF0004FF6FF652B404FF6FF552B408D892B4359
:100C0000CD892B4383800483CD888586028470BD83
:100C1000002C0140003401400040014000440140EC
:100C20000048014070B5002400220023058C4FF6D7
:100C3000EF7635400584028C8388048B48F6FF7577
:100C40002C404FF6FF452C400D884FF6FF7606EA04
:100C500005252C434FF6DF752A400D8906EA051558
:100C60002A434D8806EA05152A43154DA84202D0AD
:100C7000144DA8421DD14FF67F752A404D894FF67D
:100C8000FF7606EA05152A434FF6BF752A408D8880
:100C900006EA05152A434FF6FF352B404FF2FF7544
:100CA0002B408D8906EA85052B43CD8906EA85050B
:100CB0002B4383800483CD880587028470BD0000A8
:100CC000002C0140003401400021018041808180DE
:100CD000C180018141818181C181704700220288E8
:100CE0001D4B98420ED01D4B98420BD0B0F1804F57
:100CF00008D01B4B984205D01A4B984202D01A4B91
:100D0000984204D14FF68F731A404B881A43174B01
:100D1000984207D0164B984204D04FF6FF431A4032
:100D2000CB881A4302808B8883850B8803850A4B06
:100D300098420BD0094B984208D00E4B984205D0F0
:100D40000D4B984202D00D4B984201D10B7A03868D
:100D50000123838270470000002C014000340140D1
:100D60000004004000080040000C0040001000405B
:100D70000014004000400140004401400048014090
:100D800000B587B001218803FFF7F6FC012104209C
:100D9000FFF7F2FC18208DF81B004FF40070ADF83F
:100DA000180003208DF81A0006A91548FFF726FC45
:100DB00004208DF817000002ADF8140003208DF810
:100DC000160005A90E48FFF719FC4FF4E130019019
:100DD0000120ADF810000C20ADF80E000020ADF899
:100DE0000C00ADF80A00ADF8080001A9054800F0B4
:100DF00043F80121034800F025F807B000BD0000CA
:100E000000080140003801407047000010B500BFE5
:100E10002021054800F022F80128F9D1024800F00D
:100E200097F80446204610BD0038014010B504462E
:100E30002146024800F091F810BD00000038014042
:100E40007047704721B1828942F40052828104E0E8
:100E500082894DF6FF731A40828170470246002056
:100E6000B1F5007F00D100BF13880B400BB101200A
:100E700000E00020704700002DE9F04786B00546ED
:100E80000E460024A24600BFA1460027B08900B14B
:100E900000BF2F462C8A4CF6FF700440F0880443B4
:100EA0002C82AC894EF6F3100440B0883189084397
:100EB000718908430443AC81AC8A4FF6FF4004407B
:100EC000B0890443AC8201A8FFF766FC1F48874243
:100ED00002D1DDF810A001E0DDF80CA0A88900F433
:100EE000004040B10AEBCA0000EB0A10316849002B
:100EF000B0FBF1F807E00AEBCA0000EB0A1031681A
:100F00008900B0FBF1F86420B8FBF0F0040120097F
:100F1000642101FB1089A88900F4004040B132200F
:100F200000EBC900B0FBF1F000F00700044308E05B
:100F3000322000EB09106421B0FBF1F000F00F004B
:100F400004432C8106B0BDE8F08700000038014062
:100F500001468888C0F308007047C1F30802828008
:100F6000704700BFFEE7000010B5FFF709FF022041
:100F7000244908800120244908804FF47A502349ED
:100F8000088043F66B6022490880282021490880A8
:100F90001E20214908801E4801881C480088FFF750
:100FA0001DFD1948018817480088FFF75BFD1A48A6
:100FB000018818480088FFF799FD01211748FFF7BD
:100FC000D9FDFFF754FC01218807FFF7D3FD01216C
:100FD0001348FFF7CFFD4FF47A611248FFF7B0FADC
:100FE000FFF752F901211048FFF79EFA01210F483F
:100FF000FFF7A5F901210D48FFF749FAFFF75AFA63
:10100000002010BD04000020060000200000002089
:1010100002000020080000200A0000200008004014
:1010200000040040641F002008000240002401402A
:101030005010000800000020240000006C0100088F
:101040007410000824000020E44400008801000817
:101050000000000000000000000000000000000090
:101060000000010203040102030406070809020448
:04107000060800006E
:04000005080001CD21
:00000001FF
